:020000040000FA
:10000000F015002081010000890100008B01000033
:1000100000000000000000000000000000000000E0
:100020000000000000000000000000008D01000042
:1000300000000000000000008F010000910100009E
:100040009301000093010000930100009301000060
:100050009301000093010000930100009301000050
:100060009301000093010000930100009301000040
:100070009301000093010000930100009301000030
:100080009301000093010000930100009301000020
:100090008942000021150000930100009301000037
:1000A000D9130000930100009301000093010000A8
:1000B00093010000930100009301000085140000EB
:1000C00000F002F800F030F80CA030C8083824180E
:1000D0002D18A246671EAB4654465D46AC4201D180
:1000E00000F022F87E460F3E0FCCB6460126334282
:1000F00000D0FB1AA246AB4633431847608D000080
:10010000808D00000023002400250026103A01D332
:1001100078C1FBD8520700D330C100D50B607047BF
:100120001FB51FBD10B510BD01F048F81146FFF70F
:10013000F7FF08F047FA01F060F803B4FFF7F2FFA9
:1001400003BC04F03BFE000070B505460C461646A5
:1001500002E00FCC0FC5103E102EFAD2082E02D3AB
:1001600003CC03C5083E042E07D301CC01C5361FBE
:1001700003E021782970641C6D1C761EF9D270BDD5
:100180000748804707480047FEE7FEE7FEE7FEE72F
:10019000FEE7FEE704480549054A064B70470000A4
:1001A000494C0000C1000000F0050020F0150020BF
:1001B000F00D0020F00D0020704701E004C0091F81
:1001C0000429FBD28B0701D50280801CC90700D00F
:1001D0000270704700290BD0C30702D00270401C88
:1001E000491E022904D3830702D50280801C891E80
:1001F000E3E70022EEE70022DFE7002203098B425B
:100200002CD3030A8B4211D300239C464EE00346B5
:100210000B433CD4002243088B4231D303098B4269
:100220001CD3030A8B4201D394463FE0C3098B429F
:1002300001D3CB01C01A524183098B4201D38B01F8
:10024000C01A524143098B4201D34B01C01A52419B
:1002500003098B4201D30B01C01A5241C3088B42E0
:1002600001D3CB00C01A524183088B4201D38B00CB
:10027000C01A524143088B4201D34B00C01A52416D
:10028000411A00D201465241104670475DE0CA0F44
:1002900000D04942031000D34042534000229C4604
:1002A00003098B422DD3030A8B4212D3FC2289010E
:1002B00012BA030A8B420CD3890192118B4208D3E4
:1002C000890192118B4204D389013AD0921100E046
:1002D0008909C3098B4201D3CB01C01A524183095A
:1002E0008B4201D38B01C01A524143098B4201D387
:1002F0004B01C01A524103098B4201D30B01C01AB2
:100300005241C3088B4201D3CB00C01A524183082B
:100310008B4201D38B00C01A5241D9D243088B4281
:1003200001D34B00C01A5241411A00D20146634624
:1003300052415B10104601D34042002B00D5494288
:10034000704763465B1000D3404201B50020C046B1
:10035000C04602BD70477047704700000246C80F94
:10036000C00781434B0030B54B405B009B0D20D054
:100370001923DB06C91801231B05994220DB03243E
:10038000A40704251346AB400BD3002B04D1EB0686
:1003900013409B00E34204D4012464070023121994
:1003A0005941FF231B0599420BD2C9000143500F4D
:1003B00009E0CB0204D501430803024305D00548F8
:1003C00030BDFF21C905084330BD08460721090596
:1003D000884330BD0000C07FF0B50C46871A9C41B1
:1003E0000D46861A9D4103D2C01BA141D21963411B
:1003F0000D0D1F0DC94EEC1BAE435CD07F057F0D6C
:100400000026002F51D02D05AC46A943DD02012363
:10041000ED0A1B051D4320231B1B24D41746E74070
:10042000381871412F46E740CC199D4028183146B5
:1004300061410C0D27D161449A4013D50023401C23
:10044000594152000ED14008400001224B00520594
:10045000D34207D305204007C14201D5B04900E08F
:10046000B0493046F0BD6B00002A00D001229A1836
:100470001F23203C1B1B01D5002302E0E540281868
:1004800071410C0DD7D0012424050919C407CD07EB
:1004900040084908E40F28436144002CD5D00024CB
:1004A000401C61419A40D0D1CDE76A05520DD9D1A7
:1004B000C90FC907D5E79C4D4E00002801D0012483
:1004C00000E0002434195F00002A01D0012600E07A
:1004D0000026BE19954FAC420CD8AE420AD8B442A1
:1004E00006D001256D05EC42BCD010461946F0BD82
:1004F0009942FCD000203946F0BDF0B51FB40C463F
:100500000F46811A9F412546861A9D4106D2012534
:10051000ED076F40401ABC4152187B41210D1E0D62
:100520008D1BAC467D4D8D437ED075056D0D7CD009
:100530000D05AE46AC431B031B0B794D52429D414A
:10054000202366469B1B14D31746F7403818002615
:100550000090744160462F460741E41900989D4081
:100560002818664116D4714671189A4025D5012382
:1005700020E093182A466A415200002B00D0521CFA
:100580001E23203E9B1B002B61DD3541EE172818F2
:100590006641E8D5001876415B1C9A4000D3401CA8
:1005A0004B05F3181524E34010D3002B52D07146AD
:1005B0007118D30FC01802D3491C05B0F0BD012338
:1005C000DB079A42F9D140084000F6E701225205C4
:1005D000B21801D1002853D00123CC0ADB02994381
:1005E000891E002A08D1020C03D0020C0004103925
:1005F00002E00246002020390023550B05D11202EB
:100600000823550B01D152010D23550C01D11201C4
:100610001B1DD50C01D192009B1C150D01D1520060
:100620005B1C2025EE1A01E02CE022E00546F54097
:1006300015439840CA1AE10769181305C918002A1A
:10064000BBDA032040070818C10FC9070FE0714645
:100650006118B2E7F10740080843711071444A007D
:100660000CD001235B059A42A7D2C90FC90700200D
:10067000A3E74905490D26D1002001E00028F4D167
:1006800000219AE7284D6600002801D0012100E0F2
:10069000002171185F00002A01D0012600E0002629
:1006A000BE19224FA94210D8AE420ED8B14208D08E
:1006B00001256D05E94206D01946A80241401046C1
:1006C0007BE79C4201D0214677E70020394674E75A
:1006D00010B50C465C4005D50124E4076340FFF7E4
:1006E0000CFF10BDFFF778FE10BD30B40C465C4027
:1006F00004D50124E407634030BC6DE630BCFCE661
:1007000070B50124E40761400D465D4002D4FFF757
:1007100063FE70BD6340FFF7F0FE70BDFF07000091
:100720000000F0FF0000F07F0000E0FF0000F87F15
:10073000F0B5F94D0C091E092C402E402F468BB008
:10074000A7437DD0B543FCD0002E7AD0002CFCD03E
:100750000D465D40ED0F2543AC1BFF25AD0464192C
:100760000894C502440DC9022143500DDC02044324
:100770000120C00701430443D2020191200C110C57
:1007800000958C46010423468B430A916146090477
:10079000E24D8A430991010A7D444919803909785B
:1007A00005464D4301266D18F605751B6943C90CB6
:1007B000640B891C4C436418B5012C1B250C2E04BA
:1007C000B4434C434D43210C691889090591009DA0
:1007D000E90701D00121C90704912C460199670856
:1007E000CD072F434C08059DE10B4D432D0C2946A9
:1007F0006646754302950D4645432E46029D7D1B78
:10080000B44100950D465D4301942C0C2F040D4618
:100810005543AE462D0C3D43029503947546049C0A
:100820002D04641B049406D2029C039D641C0026C4
:1008300075410395029401AC70CC009F7D1B01E0D3
:100840003EE162E1B44109040095079101940599E4
:10085000A4086143090C0C464443650BE7040C46AD
:1008600066467443A646640B3C4303950294744663
:10087000049DE4042C1B049406D2029C039D641C7A
:10088000002675410395029401AC70CC009F7D1B3E
:10089000B44101940C465C430095650FE7000C469B
:1008A0005443A646640F3C43039502947446049D4A
:1008B000E4002C1B049406D2029C039D641C0026B9
:1008C00075410395029401AC70CC009F7D1BB4412F
:1008D000AE09AF06049DC900AD092F43049DA406CF
:1008E000AD060495079D344369180791059DE10BFA
:1008F0004D432D0C29466646754302950D464543EA
:100900002E46029D7D1BB44100950D465D4301942A
:100910002C0C2F040D465543AE462D0C3D4302953D
:1009200003947546049C2D04641B049406D2029C17
:10093000039D641C002675410395029401AC70CCA4
:10094000009F7D1BB44101948C050694079C890A85
:10095000611800950791019C0599A4086143090C51
:100960000D464543680BEF040D46644665436C0B2A
:100970003C43049FED047D1BAC4602D20025641C61
:100980006841009E019D371B8541084658430195EB
:100990000C46460FC5005443600F28436546E400EB
:1009A0002C1B02D20025401C6E41019D3F1AB5410F
:1009B0002846BD09800628438446A009BF064E028A
:1009C0000699A40676180743079D002068410A99F6
:1009D000079019430020099B00906046FF191343BC
:1009E0004041E20F64003A43A4460446D71A8C41C2
:1009F000A04203D90120009020463A46C70F941820
:100A000040416246D20F2243644664000494009C35
:100A1000BE466400D71AA446044602978C41774626
:100A2000002F01D1A04204D96046401C8446029A9E
:100A30002046C40FA64694184041049A0546D20F9A
:100A4000224364466400D31A8D417146002901D1C6
:100A5000A84202D928461A46641C104301220028E5
:100A600000D0164361020020079B891904465C41AF
:100A70000223002C02DB491813466441089DCE0A6C
:100A80002D145D194B056705E10A2C050D19089910
:100A90003E43C9076940002B08D0934006D300228B
:100AA000761C5141002B01D1760876001C4A002D9E
:100AB00043DB154241D0AA433FD030460BB0F0BDD6
:100AC00006180D464D41174C7642AC411AD3951885
:100AD0001C465C41134A6D42A24113D301225205C8
:100AE0004C00D4420AD15C00D4420BD04B4002D51A
:100AF00092021143E2E749004908DFE75940C90F74
:100B0000C90718E000200849D8E7054801420DD17F
:100B10000342F7D0F2E700000000FF070086000064
:100B20000000F07F0000E0FF0000F87F114859400E
:100B30000143C01241400020C0E70123089A9B06F0
:100B40009A4205DC032252078918C90FC907B5E785
:100B5000052252078918074A1143D2125140ADE7C6
:100B600070B515461C4602460B4628462146FFF73F
:100B7000DFFD70BDFFFFFF7F0346CA02400D10B5C9
:100B800010430A1504D00124E4072043002A05DBA2
:100B90000A4CA21A04D4D040FF2A00DD002010BD68
:100BA0004A00002B01D0012000E000201018012293
:100BB0005205D042F2D8C817C04310BD1E04000031
:100BC0001F22030C02D10F22000402D0030E03D017
:100BD00004E00020014670470002083A030F01D1EB
:100BE0000001121F830F01D18000921E002801DB3B
:100BF0004000521E120551184205C01241181046FD
:100C00007047C10FC90700D040420122920711432B
:100C1000D6E701218907D3E7F0B58B4C0F092546AC
:100C200089B0BD437BD01D092646AE43FAD00E469F
:100C30005E402740F60F3E43254071D024012142FB
:100C4000FBD0FF24AD19A4042D1B039501252D0510
:100C5000DB02DB0AC9022B43C90A29431E01090131
:100C6000040F130F050121431701880B82039143E1
:100C70002D098C46A90B1E438A039543B30B9A0397
:100C800096433F09BA0B9403A74302962E467E4330
:100C90000497B6464E19D7190C460196544305974A
:100CA0007E43371B7646BF1B3601B646BE0B361950
:100CB00000967646BC043719009C01D3641C00944E
:100CC0006400002F01D001263443029E049F754327
:100CD00066467E430496760034196E0034190094FB
:100CE000029C019E1C196643751BAE460694654620
:100CF0004519059C05956C43594375460891691A39
:100D00000191049E01465143A41B0491611A009C69
:100D10000791E10605D061090122114302E072E06A
:100D20006EE06109089D00272C0A2D066918049DB4
:100D30007C412A0A2D066918019D6241AC0DAD0265
:100D40006D185441079A910D920255196141029A0A
:100D5000644658435443069B059A5A43121A131B80
:100D60009A0E9B015B187A41010B0005C318514193
:100D7000220A200644195A419A4200D2491C0120F5
:100D80004002814203D315230226F64302E01423D6
:100D90000326F6432020C51AA9401746AF40DA4083
:100DA0000A4320460399D8400914731819055118AD
:100DB000039A3843D2075140AC4009D001229440F5
:100DC00006D30022401C5141002C01D140084000B4
:100DD0001E4A934212D3012203989206904207DBE7
:100DE0000520400709181A480143C012414004E099
:100DF000032040070818C10FC907002009B0F0BD43
:100E00000020F107FAE705180C464C4111486D42E5
:100E1000A04115D394181A465A410E486442904195
:100E20000ED301204A004005824209D35A00824273
:100E300006D35940C90F084AC90700201143DDE70E
:100E400000200649DAE700000000FF07FE07000067
:100E5000FFFFFF7F0000E0FF0000F07F0000F87F51
:100E60000121C9050123411842001B06D3185B0E5E
:100E70000AD0C1100722D206891840075242D14237
:100E800001D5520089187047090208D50146002A89
:100E900003D0C10FC90700207047104670474202B7
:100EA00002D0002002497047072109050143F4E7F9
:100EB0000000F87FF0B5FF252D04C609C209FF2701
:100EC00004462E400137CB093E4348402A402B4080
:100ED0000746002A6BD0002B69D0AA4267D0AB42EC
:100EE00065D0002800DA32460125ED0529432C4360
:100EF00009022002090AD21A4B0C7F24E31A434C40
:100F0000000A7C44E35C7D242404121914145B0061
:100F1000A218884201D3521C00E0400049420C460E
:100F20005C4324115C43DB016415E318040A5C4351
:100F3000C502200D0C4644436419250A5D43230372
:100F4000EC0C0D46654300030019EB184C42A3421C
:100F500001D35B18401CD4052018002B07D05B0080
:100F6000C91804D3401C002901D1400840003F218A
:100F700089048A4209D3002A08DC1106090F04D02B
:100F8000032149074018C00FC007F0BD01224100EE
:100F9000120689187F2252069142F6D2052149078E
:100FA000C84201D59010F0BDFF20C005F0BD002F54
:100FB00000DA32461648AA4207D2AB4205D21902DD
:100FC000090E17D0F80FC007F0BDFF2563002D06EE
:100FD000AB42F9D84900A942F6D8AB4201D1A942A7
:100FE000F2D0A94201D1002101E061004908D005F9
:100FF0000843F0BD1102090EFBD0FF200243D005CB
:10100000F0BD0A460146104654E70000167F000076
:101010000000C07F1F22030C02D10F2200041CD04D
:10102000030E01D10002083A030F01D10001121F83
:10103000830F01D18000921E002801DB4000521E68
:10104000D2055118021251181922904004D3491C9C
:10105000002801D14908490008467047C10FC90757
:1010600000D04042012292071143D3E701218907B2
:10107000D0E77047F8B5224C4E00069DA6420AD82C
:10108000A64201D1002806D15E00A64203D8A6429E
:101090000AD1002A08D00D24240425422CD0294648
:1010A000002000F061F8F8BD0C461C430CD49942B6
:1010B00002D0EFF30080F8BD904202D0EFF3008041
:1010C000F8BDEFF30080F8BD09242407E5008B424A
:1010D00006D0EFF30080A043591A06D2284304E05B
:1010E000101A05D3EFF30080A04380F30088F8BD09
:1010F000EFF30080A043F1E7009500F04DF8F8BD54
:101100000000E0FF10B5FF231B0644009C421DD8E1
:101110004C009C421AD80346124A0B4307D4401A8B
:1011200002D3EFF3008010BDEFF3008010BD081A6A
:1011300006D2EFF3008001219043C907084302E083
:10114000EFF30080904380F3008810BD0D231B0453
:101150001A4204D01146002000F006F810BD00F03D
:1011600025F810BD00000090C80212D54803400FBA
:10117000002804D0C803C043012188407047EFF322
:1011800000800001000903210907084380F300885B
:10119000704700207047000010B500200249029AF5
:1011A00000F033F810BD00000000F87F10B50248D1
:1011B00000F02BF810BD00000000C07F754600F065
:1011C00053F8AE46050069465346C008C000854640
:1011D00018B020B5FEF7DEFF60BC00274908B64610
:1011E0000026C0C5C0C5C0C5C0C5C0C5C0C5C0C536
:1011F000C0C5403D49008D46704710B50446C04605
:10120000C0462046FEF799FF10BD10B50C461107E9
:10121000090F092904D00A290AD008290CD104E0B1
:1012200011460820FFF7A0FF06E0510606D501E0B1
:10123000510601D50120C007214610BDD10607D5B2
:1012400001010909CC084907000E0006044309E022
:10125000410F20024907000A0143200E00061D220B
:10126000D14101430846E7E7004870478C0500205C
:1012700070B58C180578401C6B075B0F01D10378A3
:10128000401C2A1106D10278401C03E00678401C5D
:101290000E70491C5B1EF9D12B0705D40023521E8A
:1012A0000DD40B70491CFAE70378401CCB1A921C32
:1012B00003E01D780D70491C5B1C521EF9D5A1423C
:1012C000D8D3002070BD000000B587B0002000908A
:1012D000019002901748039000200590012006908D
:1012E00004906946144800F0CFFF40201249096875
:1012F000602291430143104A116000BF2020114633
:1013000049687022914301430B4A516000BF00BFFE
:1013100010460068012108431146086000BF00BF65
:101320000846406C0121C90308431146486400BFC8
:1013300007B000BDFF090000003001401FB50020CC
:1013400000902148019000200290039069461F48B8
:1013500001F078F800BF01201C49086100BF00BF00
:101360000846C068012108431849C86000BF18201A
:10137000002805DBC206D20E01219140144A1160FB
:1013800000BF1820002805DBC206D20E01219140C3
:10139000104A116000BF0221182003F0EDF9182057
:1013A000002806DBC206D20E01219140094A803A8C
:1013B000116000BF00BF05480068012108430349D0
:1013C000086000BF1FBD00003F1F0000008C0140EF
:1013D00080E200E080E100E010B500BF1C48006939
:1013E000C007C00F01214840484000282FD000BF4F
:1013F0001748C068084048404840002827D000BF30
:1014000001201349086100BF1248007800281ED04F
:1014100011480068401E10490860002817D10D4986
:1014200008700E480078002804D00C480078401E50
:101430000A49087009480078002803D1C8200649E5
:10144000086002E032200449086003F067FD10BD27
:10145000008C0140A8000020AC000020A900002062
:1014600070B504460025002C00D109E0642C01D1A0
:101470000A2505E00A212046FEF7C9FE401CC5B238
:10148000284670BD10B500BF0B48006A1021084007
:10149000000900280ED000BF0748C06908400009B5
:1014A000002807D001F076F800BF102002494862FA
:1014B00000BF00BF10BD00000094014070B505469C
:1014C000002408210F48FEF794FE0F4868600820AA
:1014D00028720E48007800010D4909794907C90FA3
:1014E0000843084908700B480078C87100BF06E03F
:1014F0000448015D284609300155601CC4B2082C1F
:10150000F6DB70BD7600002000D4FF1FB400002081
:10151000C80300207200002010B502F0B5FF10BD16
:1015200010B504200A49896C820182401140820171
:101530008240914201D1012100E00021002906D022
:101540000421034801F07CFD01200249087010BD10
:10155000000400400000002000B58DB0182107A84D
:10156000FEF749FE182101A8FEF745FE302007903E
:10157000022008900020099001200A9000200B9082
:1015800007A90A4801F014FFE12040020290402020
:10159000039000200490102005900320069001A9DC
:1015A000034802F075FB0DB000BD0000800C004048
:1015B0000078014010B5714800798007C00F0028FD
:1015C00000D010BD04F0EAFA6D48007803F0C4FDC5
:1015D0006B4800786A490978491C694A1170030010
:1015E00003F0D8FB0B070A19283D4C6277869AA7AF
:1015F000C80006F0CBF8BEE062480078802188433E
:1016000080306049087008464078202188432030A7
:101610005C494870AFE05B48807808218843083017
:101620005849887008464078082188430830554951
:101630004870A0E05348407840084000401C5149A1
:10164000487008468078082188434E4988700846CB
:1016500000780821884308304A4908708BE04948DF
:1016600000781021884310304649087008464078B9
:10167000102188431030434948707CE0414800788D
:1016800040084000401C3F4908700846807802210D
:101690008843801C3B498870084640780421884371
:1016A000001D3849487066E036480078202188439C
:1016B0002030344908700846007802218843801C95
:1016C0003049087008468078022188432D49887087
:1016D00051E02C4800784021884340302949087067
:1016E0000846807804218843001D2649887042E01E
:1016F0002448407802218843801C224948700846CB
:10170000807840084000401C88700846807804219A
:1017100088431C4988702EE01A48007804218843C9
:10172000001D1849087008468078400840008870FD
:1017300021E00020124908701048007902218843F6
:10174000801C0E49087100210C4820300176203899
:10175000C07E1021884310300849C8760846C07EF4
:1017600040084000401CC87600200749087007491F
:10177000087000E000BF00BF00BF22E7C8030020E0
:1017800019020020C00300209E000020A0000020BD
:10179000F0B589B0FE4800798007C00F002801D15C
:1017A00009B0F0BDFB4801780078401CF94A107080
:1017B000002902D001297DD10EE104F0EFF90021CA
:1017C000F54801710020F449383988630121F24855
:1017D000001F41700021143801751030C078400896
:1017E0004000401CEC490839C8700021EA4818380C
:1017F0000174103041708170C07802218843801CD0
:10180000E5490839C8700846C07804218843E24990
:101810000839C8700846C07808218843DE4908396D
:10182000C870881E407840084000401C891E4870DF
:101830000846407802218843801CD7490A394870FD
:101840000021D548183881730E3040780421884330
:10185000D1490A3948700846407808218843CE4962
:101860000A39487008460E38007A800880000E3920
:1018700008720021C84810384170807802218843DE
:10188000C549103988700846807804218843C249C8
:10189000103988700846807808218843BE4910397D
:1018A00088700846807840084000401C88700846D0
:1018B000083800E0C7E3C07A80088000401C08397F
:1018C000C8720021B4480D384170807802218843E5
:1018D000B1490D3988700846807804218843AE49A3
:1018E0000D3988700846807808218843AA490D3947
:1018F00088700846807840084000887000202B39A6
:1019000008710021A44838388160007B0221884397
:10191000801CA149383908730846007B042188439C
:101920009D49383908730846007B082188439A4945
:10193000383908730846007B1021884396493839A6
:1019400008730846007B202188439349383908737F
:101950000846007B402188438F4938390873084680
:10196000007B40084000401C0873012008740021DF
:10197000894838384161007E0221884386493839D8
:1019800008760846007E04218843001D82493839C4
:1019900008760846007E082188437F493839087652
:1019A0000846007E102188437B493839087608466E
:1019B000007E202188437849383908760846007E21
:1019C000402188437449383908760846007E40082B
:1019D0004000401C08763AE370480078002858D050
:1019E0006B482030407D0821884369492031487583
:1019F0000846407D402188436549203148750846A6
:101A0000407D802188436249203148750846007D29
:101A1000202188435E49203108750846407D2021F9
:101A200088435B49203148750846407D1021884332
:101A30005749203148750846007D0821884354499C
:101A40002031087500202039887708462030007D35
:101A5000042188434E49203108750846807D0421C1
:101A600088434B49203188750846807D082188438A
:101A70004749203188750846807D102188434449B4
:101A8000203188750846807D2021884340492031D7
:101A90008875414808300078102188433C4920313E
:101AA000097D4906C90F09011022114008433A492E
:101AB0000831087008460078802188433449203175
:101AC000497D8907C90FC901802211400843324965
:101AD0000831087008464078400840002C49203101
:101AE000497D4907C90F08432B490831487008460A
:101AF00000784008400026492031097D4907C90F78
:101B00000843254908310870084600784021884379
:101B10001F492031497D89014022114008431E4957
:101B2000083108700846407802218843184920315E
:101B3000497D0907C90F490002221140084316498F
:101B40000831487008460078202188431049203128
:101B5000097D0906C90F49012022114008430E4999
:101B6000083108700846007802218843084920316E
:101B7000097D0907C90F490002221140084306499F
:101B8000083108700846407804218843004907E07E
:101B9000C80300201A020020B80300209E00002085
:101BA0002031497DC906C90F89000422114008432C
:101BB000FE4948700846407810218843FC49497D19
:101BC0004906C90F0901102211400843F74948701E
:101BD0000846007808218843F549097D8906C90F20
:101BE000C900082211400843F049087008464078AF
:101BF00008218843EE49497D8906C90FC900114073
:101C00000843EA4948700846407820218843E8495B
:101C1000497D0906C90F4901202211400843E349C3
:101C200048700846007804218843E149097DC906C7
:101C3000C90F8900042211400843DC490870084696
:101C4000407840218843DA49897D8901402211404A
:101C50000843D64948700846407880218843D449D3
:101C6000897D8907C90FC901802211400843CF49E6
:101C700048700846807840084000CD49897D490772
:101C8000C90F0843C94988700846807802218843F3
:101C9000C749897D0907C90F49000222114008433D
:101CA000C24988700846807808218843C049897DE8
:101CB0008906C90FC900082211400843BB49887032
:101CC0000846807804218843B949897DC906C90F2F
:101CD0008900042211400843B4498870B448203870
:101CE000006940398863B2482038007D0107090F38
:101CF000AE4820380175AE482038417DAB482038C9
:101D00000174AB482038817DA84810384170A8483C
:101D10002038C17DA54810388170C07802218843E1
:101D2000A3492039097DC906C90F49000222114083
:101D300008439E491039C870881E407802218843A4
:101D40009B492039097E49001140084397491239BF
:101D500048709748203800794007C00F002836D0D7
:101D600094480078FFF782F90590FFF779F8064666
:101D7000914A924BFEF750FF0446FEF7FDFE8C4958
:101D8000203948768B480078FFF770F90190FFF70B
:101D900067F80446884A894BFEF73EFF0646002254
:101DA000874BFEF7C5FC06AA0391029006F03AFCA9
:101DB0000022844B0591049006F09CFE0CD27C48D6
:101DC0002038407E401C7A492039487604E0794822
:101DD000007877492039487675482038417E734825
:101DE000203881730E3040780421884370492039AF
:101DF00009794907C90F89000422114008436B493A
:101E000012394870084640780821884368492039CB
:101E100009794907C90F01225140C9000822114020
:101E20000843624912394870881F80784008400092
:101E30005F492039C97EC906C90F08435B49183973
:101E400088705B482038017F584818384170807886
:101E50001021884356492039C97E090110221140BA
:101E6000084352491839887008468078022188430F
:101E70004F492039C97E4907C90F49000222114044
:101E800008434A491839887008460838007A3C21C6
:101E9000884347492039497F89003C221140084343
:101EA0004249203908720846083080780821884362
:101EB0003F492039897FC9000822114008433B4926
:101EC00018398870C81C807840084000384920398B
:101ED000C97E8906C90F08433449153988703448CA
:101EE0002038C17F314815384170807810218843EF
:101EF0002F492039C97E8907C90F090110221140D5
:101F000008432A4915398870084680780221884399
:101F100027492039C97E0907C90F4900022211400B
:101F2000084322491539887008460B38C07A3C218D
:101F300088431F49097889003C22114008431B4906
:101F40002039C87208460B30807808218843184928
:101F50004978C9000822114008431449153988708E
:101F600013482038416A114840388160007B0821BD
:101F700088430F49203909794907C90FC900114021
:101F800008430A49403908730846007B10218843FA
:101F90000749203909794907C90F01225140090130
:101FA000102211400843014940390DE0C0030020D0
:101FB000E8030020900000203480B74082E2E33F35
:101FC000000024400000E03F08732348C16A234812
:101FD0004161007E202188431F492031097D49014C
:101FE0002022114008431D4908760846007E402102
:101FF000884319492031097D8907C90F8901402289
:1020000011400843154908760846007E0821884398
:10201000114909794907C90FC9000822114008432D
:102020000E4908760846007E102188430A4909793E
:102030004907C90F012251400901102211400843EC
:102040000649087603E001200549087000BF00BF7B
:1020500000BFFFF7A5FB0000C8030020800300209D
:102060001A0200207047000010B51148407D0C286E
:102070000DDA1048C07804218843001D0D49C8704E
:102080000846C078082188430A49C8700CE009480E
:10209000C078042188430749C8700846C0780821E1
:1020A000884308300349C87006F0E6FB10BD000005
:1020B000C8030020B003002010B5FFF77BFA3748B3
:1020C00000798007C00F002800D110BD3448007887
:1020D000002806D0012810D0022824D003284DD192
:1020E0003FE02E482030807D042188432B49203159
:1020F000887500202B4908704CE028482030807DEE
:102100000421884325492031897D4907C90FC943E6
:10211000890004221140084320492031887500209D
:102120002049087036E01F480078401C1D4908709F
:1021300008460078042813D1002008701748203082
:10214000807D0421884315492031897D4907C90FC5
:10215000C943890004221140084310492031887581
:1021600018E00E482030807D04218843001D0B4973
:102170002031887500200B4908700BE0074820309B
:10218000807D042188430549203188750020054958
:10219000087000BF00BF00BF97E70000C803002021
:1021A000920000201802002010B50446FFF7F0FA54
:1021B000204606F07FFA10BD10B506F0BFFB1548AB
:1021C000007800280FD01448407D08218843124928
:1021D000497D0907C90FC943C900082211400843B6
:1021E0000D49487505E00C48407D082188430A499F
:1021F000487509492039087FFFF732F90649203927
:102200004877C87FFFF72CF903490870012020396F
:10221000087610BD75000020E80300207047704765
:10222000FFB581B00E46174631460B4800F08EFFD1
:1022300000240CE0A0003A58A0008119064801F0E3
:102240000FF80546002D01D105B0F0BD641C0498BF
:102250008442EFD30120F7E70010004030B5034679
:102260000C461546002207E0184602F009FC9100D2
:1022700060501B1D501CC2B2AA42F5D330BD41694B
:10228000012211434161704770B505460C46052691
:1022900000BF6348854201D1012000E000200028F2
:1022A00001D100BFFEE700BF00BFA06800280BD02F
:1022B000A068102808D0A068202805D0A068402871
:1022C00002D0A068602801D1012000E00020002891
:1022D00001D100BFFEE700BF00BF6069002808D041
:1022E000FF2101316069884203D04900606988425A
:1022F00001D1012000E00020002801D100BFFEE74D
:1023000000BF00BF2069012802D02069002801D148
:10231000012000E00020002801D100BFFEE700BF3F
:1023200000BF2068002802D02068802801D1012049
:1023300000E00020002801D100BFFEE700BF2068B8
:1023400038494968802291430143364A516000BFB1
:10235000102000F01DFD0120C00300F001FDA06968
:10236000296B090A09020143296300BFA0682028DC
:1023700004D0402803D0602807D101E000BF00BF8F
:102380002846A16800F058F80BE0A06829681022E0
:1023900091430143296000BF0021284600F04CF81A
:1023A00000BF00BFE068E96A090C09040143E96263
:1023B00000BF60692968032212029143014329602A
:1023C00000BF6068A96A090C09040143A96200BF43
:1023D0002069012806D100BF2868802108432860B1
:1023E00000BF06E000BF286880218843286000BF46
:1023F00000BF2846FFF743FF00E0761E084800F0C4
:1024000013F8002801D1012000E00020304000280E
:10241000F3D100BF01200249086100BF70BD000078
:10242000003001404024004001460869C007C00F49
:102430000122504050407047026860239A430A438B
:102440000260704710B5024600BF4A48824201D17F
:10245000012000E00020002801D100BFFEE700BFFE
:1024600000BFC86800280ED00123DB03C86898426B
:1024700009D003239B03C868984204D001239B031F
:10248000C868984201D1012000E00020002801D155
:1024900000BFFEE700BF00BF374B0868984201D875
:1024A000012000E00020002801D100BFFEE700BFAE
:1024B00000BF314B4868984201D8012000E000205D
:1024C000002801D100BFFEE700BF00BF88680128D7
:1024D00002D08868002801D1012000E000200028F7
:1024E00001D100BFFEE700BFFF200130234B1B6876
:1024F0000343224C236000BFC86823465B68032463
:10250000A403A34303431D4C636000BF082023467C
:10251000DB680343E36000BF0868936A1B0C1B047D
:102520000343936200BF00BF10680223984310600A
:1025300000BF4868D36A1B0C1B040343D36200BF6F
:102540008868012806D100BF1068802318431060F6
:1025500000BF06E000BF106880239843106000BFF2
:1025600000BF00BF506901231843506100BF012024
:1025700010BD0000008C0140FFFF0000402400401F
:1025800001680222114301607047016A1022114361
:102590000162704770B50024002500BFFE48006D41
:1025A000FE49486000BFFC48406D0007000F0873FB
:1025B00000BFF948806D044600BFF748C06D05466E
:1025C000084680884005C00849684900890B4018C2
:1025D000F24988604C732004010EF0488173200298
:1025E000010EEE48C173200EEC490874084645748C
:1025F0002804010EE94881742802010EE748C174DD
:10260000280EE649087508468068E54A811A904216
:102610007ED00ADCE349401800287AD0E24940180D
:10262000002807D0012840D140E0012972D00329B9
:10263000F9D10EE1D948007DDC49097888420CD0F7
:102640000020DB490870DB490870DB490870DB4972
:102650000870DB490870DB490870D048007DD34919
:102660000870CE48807CF02108400111CB48C07C26
:102670008007800E0818D44988750846807D3B285D
:1026800001DD3B208875C548807C0007C10EC3482A
:10269000407C80221040C0110818CB49487508467C
:1026A000407D172801DD17204875A9E1BB48407C13
:1026B0004007400FC549087008460078072809D12F
:1026C000C1482030007D102188431030BE492031A0
:1026D000087507E0BC482030007D10218843BA49C6
:1026E00020310875AD48807C8007800FB84908709C
:1026F000AA49087C022101F071FC00280DD0B248E3
:102700002030007D202188432030AF49203102E075
:1027100070E006E188E0087507E0AB482030007DF6
:1027200020218843A849203108759C49487C032111
:1027300001F054FC002809D0A3482030007D082176
:1027400088430830A0492031087507E09E482030B2
:10275000007D082188439C49203108758F49087CF9
:10276000052101F03BFC002809D097482030807DEE
:1027700010218843103094492031887507E0924831
:102780002030807D102188438F492031887583490E
:10279000887C022101F022FC002809D08A482030E0
:1027A000807D20218843203087492031887507E0CB
:1027B00085482030807D20218843834920318875D9
:1027C0007649887C042101F009FC002809D07E4864
:1027D0002030007D04218843001D7B49203108758D
:1027E00007E079482030007D042188437649203174
:1027F000087505E16948807B00026849497B4018FB
:102800007449088065494A7C897C090252186349E9
:10281000C97C090452186149097D09065018FEF760
:1028200025FC69498862EBE05C48807B6A49087056
:1028300008460078632801DD632008705748407B14
:10284000614908770846007F642801DD6420087725
:10285000D6E05248007D614908705049887B0321C9
:1028600001F0BCFB5E4908704C49487B002101F037
:10287000B5FB400120210840064653482030407DEA
:10288000884330435049203148754449487B0121F1
:1028900001F0A4FB80014021084006464A48203050
:1028A000407D884330434849203148753B49487B47
:1028B000022101F093FB444988773849487B032182
:1028C00001F08CFBC0018021084006463E482030C4
:1028D000407D884330433C49203148752F49487B2F
:1028E000062101F07BFB0001102108400646364816
:1028F0002030407D88433043334920314875274993
:10290000487B052101F06AFBC0000821084006460B
:102910002D482030807D884330432B4920318875F5
:102920006EE01E48407B02210840022818D126484C
:1029300000794007C00F1949497BC907C90F884270
:102940000ED00120274908701F48007904218843D0
:102950001249497B89000422114008431A49087131
:102960000E48C07B8007800F032808D11649886A6B
:10297000002106F039F902D001201B4908700748F0
:10298000C07B0C2108400C2839D10F49886A0021EE
:1029900006F02AF933D029E000940140C802002053
:1029A00002C4FF1FECFBFBEF144004F0A600002064
:1029B000A1000020A20000209D0000209E00002019
:1029C0009F000020A0000020C803002091000020EC
:1029D0009200002094000020900000209C00002025
:1029E000750000209B000020990000200548007918
:1029F0004007C00F002802D101200349087000BF22
:102A000000BF70BDC80300209A000020F8B504463E
:102A10000D4616461F460520009005E00098401E12
:102A20000090012000F022FB00BF1348C069042180
:102A300008408008002801D0012000E00020009913
:102A400008400028EAD100BF0B48006B0A490C631C
:102A500000BF00BF0846406B0009000128434863DF
:102A600000BF00BF0846806B8E6300BF00BF0846F2
:102A7000C06BCF6300BFF8BD00940140FEB50546B2
:102A80000C4600260027002001900090002D03D165
:102A900020884605760D27E0012D05D120884005C8
:102AA000400DE90246181FE0022D0DD16068800339
:102AB0004008E9024018491040181A4A616811405C
:102AC000890C084306460FE0032D0DD16068800392
:102AD0004008012109034018C9040843114A6168EC
:102AE0001140890C08430646277A207B0006E17ACC
:102AF00009040843A17A09020843617A0843019056
:102B0000207C0006E17B09040843A17B09020843FD
:102B1000617B0843009039463046009B019AFFF7DD
:102B200075FFFEBD0000FC1F70B505460C4600BFDA
:102B30006078002808D06078012805D060780228E5
:102B400002D06078032801D1012000E00020002895
:102B500001D100BFFEE700BF00BFA07800282CD045
:102B6000A078012829D0A078022826D0A0780328B0
:102B700023D0A078042820D0A07805281DD0A078E4
:102B800006281AD0A078072817D0A078082814D0D3
:102B9000A078092811D0A0780A280ED0A0780B2898
:102BA0000BD0A0780C2808D0A0780D2805D0A078EC
:102BB0000E2802D0A0780F2801D1012000E00020CB
:102BC000002801D100BFFEE700BF00BFE078002869
:102BD00014D0E078012811D0E07802280ED0E078F7
:102BE00003280BD0E078042808D0E078052805D029
:102BF000E078062802D0E078072801D1012000E023
:102C00000020002801D100BFFEE700BF00BF6079AF
:102C1000002808D06079102805D06079202802D0DB
:102C20006079302801D1012000E00020002801D186
:102C300000BFFEE700BF0120C0043749C96B014354
:102C4000354AD16300BF401133494031C96801435F
:102C5000314A4032D16000BF607911464968302264
:102C6000914301432C4A4032516000BF01202B495F
:102C7000096881430143294A116000BF6078114609
:102C8000C968FF2281329143C2011143234AD160B6
:102C900000BFA0781146C968090909010143D16044
:102CA00000BFE0781146C9687022914302011143C8
:102CB0001A4AD16000BF207911468968090A0902C1
:102CC0000143916000BF207800280BD100BF10465F
:102CD0004068022188431146486000BF0846FFF75C
:102CE0004FFC17E0207801280BD100BF0B4840684B
:102CF000022108430949486000BF0846FFF740FC2D
:102D000008E000BF054800680221884303490860C5
:102D100000BF00BF012070BD0024004000940140AE
:102D20000249896B8143014A916370470024004046
:102D30000249C9688143014AD1607047402400407C
:102D40000249896B0143014A9163704700240040A6
:102D50000249C96B0143014AD16370470024004016
:102D60000249C9680143014AD160704740240040CC
:102D70000249C9680143014AD160704740240040BC
:102D80000249C9680143014AD160704740240040AC
:102D9000024909680143014A11607047402400401C
:102DA000024909680143014A11607047402400400C
:102DB00010B5002400BF1B48006807210902084025
:102DC00005221202811A904218D006DC00280DD08C
:102DD00001218902401A1DD10CE0C81FF9380028D2
:102DE00010D0FF380138002814D10FE000F0FAF8B5
:102DF000044613E000F0F6F844080FE000F0F2F8A3
:102E000084080BE000F0EEF8C40807E000F0EAF8F0
:102E1000040903E000F0E6F8044600BF00BF2046C6
:102E200010BD00000024004010B5002400BF1B4866
:102E3000006807210904084005221204811A904203
:102E400018D006DC00280DD001218904401A1DD1BC
:102E50000CE001200004081A10D001210904401AD6
:102E600014D10FE0FFF7A4FF044613E0FFF7A0FF23
:102E700044080FE0FFF79CFF84080BE0FFF798FF82
:102E8000C40807E0FFF794FF040903E0FFF790FF91
:102E9000044600BF00BF204610BD000000240040D3
:102EA00070B50024002500BF2548C06802210840F5
:102EB000002802D0022806D103E000F045F80446BD
:102EC00005E0204C03E000F03FF8044600BF00BFDF
:102ED00000BF1B48C068702108400107090F002986
:102EE0001FD10011030001F055FF080506080A0C68
:102EF00012141A1C16E0640814E0A40812E0E40896
:102F000010E00C212046FDF778F904460AE0240978
:102F100008E018212046FDF770F9044602E0640934
:102F200000E000BF00BF00BF0548C0687F21090462
:102F30000840000C451C204668430446204670BDEE
:102F40000024004000127A00002000BF0D494968AB
:102F50000F2212041140002908D001221204891AFC
:102F600006D0891A06D0891A08D105E0064807E07C
:102F7000064805E0064803E0064801E0024800BFB5
:102F800000BF70470024004000127A000024F400C3
:102F900000366E010048E801002000BF1049496A70
:102FA000032212041140002908D001221204891AB8
:102FB00007D0891A08D0891A0CD108E04B204003A9
:102FC0000BE04B20C00208E04B20800205E04B20C4
:102FD000400202E04B20400300BF00BF70470000EA
:102FE0000024004010B5002400BF134800684007CB
:102FF000400F030001F0CEFE0705090B190F131651
:103000001900FFF7A1FF044613E00C4C11E0FFF795
:1030100047FF04460DE0FFF7BFFF044609E0012427
:10302000E40306E00124E40303E0FFF78DFF044618
:1030300000BF00BF204610BD0024004000127A00EF
:10304000FF2201328A40826470470000064800690E
:103050000421084304490861084600690121084326
:10306000014908617047000000E000E010B5044627
:1030700003E07D20C00000F005F82046641E002813
:10308000F7D110BD10B504460C490D480068FDF796
:10309000B4F8444301200006844200D900E02046F1
:1030A0000446601E074948610020886100BF05484A
:1030B0000069C003C00F0028F9D010BD40420F00C6
:1030C0002002002000E000E0012101627047416918
:1030D00002229143416141690122114341617047DC
:1030E0004169490849004161416902221143416136
:1030F00070470146086A0722520410407047014693
:10310000086A012292021040800A70470146086A4C
:10311000FF2201321040000A70470146086AC007CA
:10312000C00F01225040504070470146086A0122FA
:1031300052021040400A70470146086A02221040BD
:10314000400870470021C94381617047F8B50546C2
:103150000C460026012700BF3B48854201D10120D3
:1031600000E00020002801D100BFFEE700BF00BF43
:10317000002C04D93548844201D8012000E0002009
:10318000002801D100BFFEE700BF2020FFF7D8FDD7
:10319000A007800F002801D00020F8BD2846FFF7C7
:1031A000A8FF0121C904884201D10020F5E70120D0
:1031B0008007FFF7DDFD0021284600F0D7F82846FC
:1031C000FFF785FF01F0F4FD009072B62049284614
:1031D00000F0D3F81F49284600F0CFF8009801F01E
:1031E000EAFD2846FFF770FF1B4820601EE0761CB2
:1031F0001A4886420ED82846FFF788FF002809D1D2
:103200002846FFF792FF002804D12846FFF777FFF2
:10321000002801D000270AE02846FFF77EFF00289B
:1032200004D02846FFF750FF012700E0DFE700BF8A
:103230002846FFF787FF01208007FFF779FD202050
:10324000FFF76EFD3846A8E700100040FFFF0300BF
:1032500096969696EAEAEAEACDAB3412FFFF0000B2
:10326000FEB505460C46164600270120009000BF1B
:103270003948854201D1012000E00020002801D119
:1032800000BFFEE700BF00BF002C04D933488442D2
:1032900001D8012000E00020002801D100BFFEE796
:1032A00000BF2020FFF74CFDA007800F002801D0B1
:1032B0000020FEBD2846FFF71CFF0121C9048842FB
:1032C00001D10020F5E701208007FFF751FD2846D6
:1032D000FFF706FF01F06CFD019072B62049284609
:1032E00000F04BF81F49284600F047F8019801F01C
:1032F00062FD266021E07F1C1B4887420ED82846CD
:10330000FFF704FF002809D12846FFF70EFF002829
:1033100004D12846FFF7F3FE002802D000200090D9
:103320000CE02846FFF708FF002806D000BF022067
:10333000286200BF0120009000E0DCE700BF2846C3
:10334000FFF700FF01208007FFF7F2FC2020FFF7C6
:10335000E7FC0098ADE7000000100040FFFF03000D
:10336000A5A5A5A5F1F1F1F1FFFF00004269032336
:103370001B029A430A434261704781617047826A27
:103380008BB29A438262704702688BB29A430260A2
:10339000704782688BB29A438260704742688BB2F2
:1033A0009A4342607047026A8BB29A430262704746
:1033B000F8B506460C460027002500BF7248864235
:1033C0000ED07148403086420AD06F488030864225
:1033D00006D06D48C030864202D06C48864201D18A
:1033E000012000E00020002801D100BFFEE700BF5F
:1033F00000BF2068002805D965492068884201D8A7
:10340000012000E00020002801D100BFFEE700BF3E
:1034100000BF6068032808D06068002805D0606895
:10342000012802D06068022801D1012000E00020BC
:10343000002801D100BFFEE700BF00BFA06801283F
:1034400002D0A068002801D1012000E0002000285F
:1034500001D100BFFEE700BF00BFE068002802D036
:10346000E068012801D1012000E00020002801D1FE
:1034700000BFFEE700BF00BF6069002802D060699E
:10348000012801D1012000E00020002801D100BF67
:10349000FEE700BF80203F49496B01433D4A51632D
:1034A00000BF6AE00121B940206808400546002DB0
:1034B00062D0606803281AD129463046FFF764FFBE
:1034C00029463046FFF76AFF29463046FFF761FF7D
:1034D0006069012806D100BFB06AA9B20843B06292
:1034E00000BF33E029463046FFF749FF2EE029466A
:1034F0003046FFF744FF6068002806D100BF3068FF
:10350000A9B20843306000BF03E029463046FFF708
:103510003BFFA068002804D129463046FFF739FF59
:1035200006E000BFB068A9B20843B06000BF00BFAA
:10353000E068002806D000BF7068A9B20843706038
:1035400000BF03E029463046FFF728FF60680228E5
:103550000DD12069012806D100BF306AA9B2084305
:10356000306200BF03E029463046FFF71CFF2946C2
:103570003046626800F015F87F1C2068F84000288B
:1035800090D10120F8BD0000000C0040000D00406B
:10359000FFFF00000024004082698BB21A43826161
:1035A000704730B5C3680C464C4365006419A343AB
:1035B0000C464C4354432343C36030BD10B5012A2D
:1035C00006D0022A0AD0042A10D0082A1CD113E0FF
:1035D00083699B089B000B43836115E08369032487
:1035E0002402A3430C02234383610DE0C3699B08BB
:1035F0009B000B43C36107E0C36903242402A34378
:103600000C022343C36100BF00BF10BD416901220A
:10361000114341617047000070B504460D4600BF7C
:103620004E48844205D04E48844202D04D488442E0
:1036300001D1012000E00020002801D100BFFEE7F9
:1036400000BF00BF686800280ED0686810280BD043
:103650006868002808D06868402805D06868202875
:1036600002D06868602801D1012000E00020002815
:1036700001D100BFFEE700BF00BF2869002808D0C5
:10368000FF2101312869884203D049002869884216
:1036900001D1012000E00020002801D100BFFEE799
:1036A00000BF2E48844203D10220FFF779FB09E0D6
:1036B0002B48844203D10420FFF772FB02E008206C
:1036C000FFF76EFB6868202804D0402803D06028EC
:1036D00007D101E000BF00BF2046696800F040F953
:1036E0000BE068682168102291430143216000BF0C
:1036F0000021204600F034F900BF00BFA868E16A4D
:10370000090C09040143E16200BF28692168032212
:10371000120291430143216000BF2868A16A090C8D
:1037200009040143A16200BFE868012806D100BF77
:10373000206880210843206000BF06E000BF2068A9
:1037400080218843206000BF00BF2046FFF75EFF56
:1037500000BF0120206100BF70BD0000004C01408F
:103760000064014000800140F8B504460E4615464D
:10377000012700BF7748844205D07748844202D0B1
:103780007648844201D1012000E00020002801D1C8
:1037900000BFFEE700BF00BF2868002814D02868DB
:1037A000102811D0286820280ED0286830280BD087
:1037B0002868402808D02868502805D02868602844
:1037C00002D02868702801D1012000E000200028E4
:1037D00001D100BFFEE700BF00BFA868012802D0EA
:1037E000A868002801D1012000E00020002801D1B4
:1037F00000BFFEE700BF00BF2869002802D028698B
:10380000022801D1012000E00020002801D100BFE2
:10381000FEE700BF00BF6868012802D06868002882
:1038200001D1012000E00020002801D100BFFEE707
:1038300000BF00BF6869012802D06869002801D173
:10384000012000E00020002801D100BFFEE700BFFA
:103850003046012806D0022809D004280CD00828B8
:1038600016D10FE0216A49084900216210E0216A5F
:103870001022914321620BE0216AFF220132914321
:10388000216205E0216A012212039143216200BFF7
:1038900000BF00BF31462869012906D002290AD09D
:1038A00004290FD008291DD114E0226A02239A436B
:1038B0000243226216E0226A20239A4303011A433C
:1038C00022620FE0226A01235B029A4303021A4339
:1038D000226207E0226A01235B039A4303031A432F
:1038E000226200BF00BF00BF324600212046FFF722
:1038F00065FE2A463146204600F07AFF3046012810
:1039000006D0022809D004280CD0082816D10FE0D0
:10391000216A01221143216210E0216A1022114321
:1039200021620BE0216AFF2201321143216205E08E
:10393000216A012212031143216200BF00BF00BFB0
:103940002046FFF763FE00BF0120206100BF38461C
:10395000F8BD0000004C01400064014000800140BF
:10396000026860239A430A430260704730B50246FA
:10397000012300BF2A48824201D1012000E000203B
:10398000002801D100BFFEE700BF00BF254C4868FA
:10399000A04201D2012000E00020002801D100BF98
:1039A000FEE700BF00BF0868002814D0086801289F
:1039B00011D0086802280ED0086803280BD00868C8
:1039C000042808D00868052805D00868062802D011
:1039D0000868072801D1012000E00020002801D15B
:1039E00000BFFEE700BF20200F4C646B04430E4D68
:1039F0006C6300BF08685468E408E4000443546042
:103A0000146800BF48680405240DD460146800BF22
:103A100000BF06481060106800BF184630BD0000A7
:103A200000140140FF0F0000002400405A5A3412D5
:103A300010B5FFF70BFB10BD70B505460C4600BF77
:103A40008948854201D1012000E00020002801D1F1
:103A500000BFFEE700BF00BF0321090220688842C3
:103A60000BD0012149022068884206D04910206805
:103A7000884202D02068002801D1012000E0002007
:103A8000002801D100BFFEE700BF00BF606800282A
:103A900004D0012189036068884201D1012000E03F
:103AA0000020002801D100BFFEE700BF00BFA068D2
:103AB000002821D001218902A06888421CD0490039
:103AC000A068884218D003218902A068884213D0D8
:103AD00001210903A06888420ED005218902A0684F
:103AE000884209D00321C902A068884204D0072176
:103AF0008902A068884201D1012000E0002000284E
:103B000001D100BFFEE700BF00BF2069002808D038
:103B10002069012805D02069022802D020690328E5
:103B200001D1012000E00020002801D100BFFEE704
:103B300000BF00BF6069002802D06069042801D17D
:103B4000012000E00020002801D100BFFEE700BFF7
:103B500000BFE069002805D0E069202802D0E069B4
:103B6000402801D1012000E00020002801D100BF41
:103B7000FEE700BF00BFA069002802D0A06980282E
:103B800001D1012000E00020002801D100BFFEE7A4
:103B900000BF354885421ED101203449496B01439D
:103BA000324A516300BF2069022814D001202F49F6
:103BB0004031C96801432D4A4032D16000BF2068BE
:103BC000114649680322120291430143274A4032B9
:103BD000516000BF00BF60682968012292039143D1
:103BE0000143296000BFA06829680722920291431F
:103BF0000143296000BF20692968890889000143C1
:103C0000296000BF2069002806D0012805D00228BD
:103C100008D0032819D113E017E02846E16900F025
:103C200027F812E0A06929688022914301432960A6
:103C300000BF00BF286851040843286000BF04E0AB
:103C40002846E16900F014F800BF00BF60692968E8
:103C5000042291430143296000BFE068E968E860FD
:103C600000BF012070BD000000340140002400406E
:103C7000026860239A430A43026070470021016092
:103C800041608160C16001618161C16141617047D2
:103C9000F8B505460C46002700200090002600BF1E
:103CA000A84885420BD0A848854208D0A74885423D
:103CB00005D0A748854202D0A648854201D10120FF
:103CC00000E00020002801D100BFFEE700BF00BFD8
:103CD0002068002814D02068012811D0206802280C
:103CE0000ED0206803280BD02068002808D0206858
:103CF000042805D02068082802D020680C2801D1AB
:103D0000012000E00020002801D100BFFEE700BF35
:103D100000BFA068C02808D0A068002805D0A0680F
:103D2000402802D0A068802801D1012000E00020B6
:103D3000002801D100BFFEE700BF00BF20690028B6
:103D400005D02069102802D02069202801D1012047
:103D500000E00020002801D100BFFEE700BF00BF47
:103D6000E068002804D0FF210131E068884201D1D9
:103D7000012000E00020002801D100BFFEE700BFC5
:103D800000BF6069002808D06069022805D060691A
:103D9000012802D06069032801D1012000E0002041
:103DA000002801D100BFFEE700BF6648854227D149
:103DB000206869494968890889000143664A516059
:103DC00000BF2068002806D0012808D002280AD0A9
:103DD00003280FD10BE0FFF727F800900AE0FFF768
:103DE000B3F8009006E0FFF7FDF8009002E05B48B2
:103DF000009000BF00BF61680098FCF7FEF9461E06
:103E00005148854227D12068534949680C22914383
:103E10000143514A516000BF2068002806D00428A1
:103E200008D008280AD00C280FD10BE0FEF7FCFFC1
:103E300000900AE0FFF788F8009006E0FFF7D2F85C
:103E4000009002E04548009000BF00BF6168009804
:103E5000FCF7D3F9461E3B48854206D18015FEF794
:103E600077FFA815FEF78CFF35E03748854206D16D
:103E70004015FEF76DFF6815FEF782FF2BE0334813
:103E800085420BD1C014FEF763FFFEF7CDFF009013
:103E900061680098FCF7B1F9461E1CE02C48854289
:103EA0000BD18014FEF754FFFEF7BEFF009061684F
:103EB0000098FCF7A2F9461E0DE0264885420AD17B
:103EC0004014FEF745FFFEF7AFFF009061680098D1
:103ED000FCF793F9461E207DC007C00F002806D0CE
:103EE00000BF286801210843286000BF00BF0221ED
:103EF00060690840002805D000BF28680843286092
:103F000000BF00BF00BFA869000C00043043A861D7
:103F100000BFE0682968FF22013291430143296014
:103F200000BFA0682968C02291430143296000BFF7
:103F300020692968302291430143296000BF01278D
:103F40003846F8BD00200140006801400070014083
:103F500000740140007801404024004000127A00C3
:103F600000B591B018216846FCF745F92020009073
:103F700002200190002002900390012004906946E5
:103F80001348FFF715FA4F200C9000200D901148B0
:103F90000E900020109001200F900CA90E48FFF702
:103FA0003BFB6020069000200B90079009900A9040
:103FB000089006AA08210848FFF7D6FB00BF06486C
:103FC0000068012108430449086000BF11B000BD2A
:103FD000000C0040E7030000006401400246134665
:103FE0000B41DB07DB0F002B01D0012000E000209C
:103FF000704700001CB50020019005200090694624
:104000000148FFF7B3FC1CBD0014014010B5434844
:104010000078012822D100204049087040480078EB
:10402000401C3F4908703F48FDF748FA3D490220CF
:10403000FEF724FD3C48007801280FD100203A49C2
:10404000087000F0EFFC3949886A002104F0CCFDCB
:1040500004D000203549886200F074FE34480078AE
:1040600001280FD100203249087000212F48C1607B
:104070000079042188432D49087100F063FE002077
:104080002A4988622B480078012804D10020294958
:10409000087000F057FE28480078002804D0012856
:1040A00016D0022837D12FE000F05EF900F0EBFCCB
:1040B0002248006800F0DCF91F480078401C1E49C7
:1040C000087000201E490880012000F006FD22E053
:1040D0000120FEF7CBFF1A480088401C80B2184927
:1040E00008807D21C90088420DD100201449088034
:1040F00000F0F3FC10480078401C0F49087003F0F2
:1041000045FB00F08FFC06E000F058FF0446204617
:1041100000F092FA00BF00BF10BD00007300002045
:1041200072000020B402002099000020C803002083
:104130009A0000209B00002016000020B000002004
:104140001800002070B5002500240AE0204600F089
:1041500033F8002803D00120A0402843C5B2601CDA
:10416000C4B2072CF2DB284670BD000000B587B052
:10417000182101A8FCF73FF80F2040020190002011
:1041800002900390012004900020059001A90948A5
:10419000FFF70EF9432001900020029003900120C8
:1041A00004900020059001A902484030FFF700F973
:1041B00007B000BD400C004010B50146C8000B4BD5
:1041C0001858C069CB00094C1B199B88184000285F
:1041D00001D1002200E00122C800044BC018807900
:1041E000904201D1012010BD0020FCE7648D000049
:1041F00000B589B001A8FFF741FD002001900590AE
:1042000002900320C00203901C48049000200690F6
:104210000890079001A91A48FFF70EFC00BF402044
:104220001749486100BF00BF0846006940210843A4
:104230001349086100BF1420002805DBC206D20E16
:10424000012191400F4A116000BF0321142000F0AA
:104250001BFA1420002806DBC206D20E0121914071
:10426000084A803A116000BF00BF054880690121FB
:1042700008430349886100BF09B000BD87130000EF
:104280000034014080E100E010B500BF2C48006917
:10429000402108408009002850D000BF28484069CC
:1042A00008408009002849D026480078401C25494C
:1042B000087008460078642805DD0120224908704E
:1042C00064202049087021480078401C1F4908706C
:1042D00008460078642805DD01201D490870642027
:1042E0001A4908701B480078401C1A490870084693
:1042F0000078642805DD01201749087064201549FD
:10430000087000F0F7FD04F049FB14480078401EE7
:10431000C0B21249087000280AD101201049087063
:1043200064200E4908700F480078401C0D49087041
:1043300000BF40200249486100BF00BF10BD00001F
:10434000003401409D0000209E000020A1000020BC
:10435000A20000209F000020A00000206800002094
:10436000730000201C00002010B504F0FDF814209C
:10437000FEF77CFE112004F07BFB1420FEF776FE96
:1043800000BFD22004F074FB002004F02FFB00BF1C
:104390001420FEF76BFE00BFC02004F069FB522022
:1043A00004F024FB002004F021FB00BF00BFC32069
:1043B00004F05EFB012004F019FB00BF00BFB02039
:1043C00004F056FB012004F011FB00BF00BF2A20BF
:1043D00004F04EFB002004F009FB9F2004F006FBD4
:1043E00000BFB72004F044FB002004F0FFFA00BF38
:1043F0002B2004F03DFB002004F0F8FA012004F02B
:10440000F5FA00BF00BFB22004F032FB1D2004F01B
:10441000EDFA00BF292004F02BFB10BD00B587B0DA
:10442000182101A8FBF7E7FEFF2101310F48FFF734
:10443000B3F8012149020D48FFF7AEF8032000024E
:1044400001900120029000200390049001A90748E8
:10445000FEF7AEFFFF2101310448FFF79DF801216F
:1044600049020248FFF798F807B000BD000C004071
:1044700000BF0449096C090C09040143014A116495
:1044800000BF70470064014000B589B0182103A83F
:10449000FBF7B1FE002001900290C02003900220A3
:1044A00004900020059006900790089003A91B48EF
:1044B000FEF77EFF0321684681710221C17101214F
:1044C00041710172002101711021417201A914484A
:1044D000FEF72AFB00BF10201149486200BF0846C2
:1044E000FEF753F81F20002805DBC206D20E01217B
:1044F00091400C4A116000BF01211F2000F000F91B
:104500001F20002806DBC206D20E01219140054A79
:10451000803A116000BF09B000BD0000000C0040EF
:104520000094014080E100E000B587B0182101A8A7
:10453000FBF761FE0C200190032002900020039005
:104540000490059001A93748FEF732FF0220364952
:104550000968890889000143334A116000BF00BF20
:104560003248006A012108433049086200BF022036
:10457000C9680222914301432C4AD16000BF302018
:104580001146C968702291430143284AD16000BF97
:104590003F201146C9687F2212049143020411434F
:1045A000224AD16000BF00BF1046C0680121084305
:1045B0001146C86000BF00BF00BF1C48C068802112
:1045C0000840C0090028F7D0022018490968C90826
:1045D000C9000143154A116000BF00201146096857
:1045E0000722120291430143104A116000BF00BF2D
:1045F0001146096807221204914301430B4A1160D6
:1046000000BF0B4840684008400009494860084620
:104610000068400840000860FEF7E4FC05490860B7
:1046200007B000BD800C0040001000400024004096
:10463000002800402002002010B5044602F0A2FD30
:1046400001F012FB00F0A4F9030000F0A3FB070542
:10465000080C0F1215181B00FDF7E1FD12E02046B3
:10466000FDF7A2FD0EE0FDF7D9FD0BE0FDF7FAFC2A
:1046700008E0FDF721FD05E0FDF79EFD02E0FDF7F6
:10468000F3FC00BF00BF10BD10B5002819DB1A4AAB
:1046900003231B02D21883089B00D2588307DC0E29
:1046A000FF23A3409A438B071B0E8407E40EA3400D
:1046B0001A43114B032424021B198408A4001A5125
:1046C00018E00E4A03071B0F083B9B089B00D258BB
:1046D0008307DC0EFF23A3409A438B071B0E84073E
:1046E000E40EA3401A43054B0407240F083CA4081A
:1046F000A4001A5110BD000000E100E01CED00E034
:1047000010B5002819DB1A4A03231B02D2188308AC
:104710009B00D2588307DC0EFF23A3409A438B07EC
:104720001B0E8407E40EA3401A43114B03242402FA
:104730001B198408A4001A5118E00E4A03071B0F26
:10474000083B9B089B00D2588307DC0EFF23A34045
:104750009A438B071B0E8407E40EA3401A43054BB4
:104760000407240F083CA408A4001A5110BD00003F
:1047700000E100E01CED00E010B5002819DB1A4A4A
:1047800003231B02D21883089B00D2588307DC0E38
:10479000FF23A3409A438B071B0E8407E40EA3401C
:1047A0001A43114B032424021B198408A4001A5134
:1047B00018E00E4A03071B0F083B9B089B00D258CA
:1047C0008307DC0EFF23A3409A438B071B0E84074D
:1047D000E40EA3401A43054B0407240F083CA40829
:1047E000A4001A5110BD000000E100E01CED00E043
:1047F000F0B5034601250C461068012C06D0022CAA
:104800000AD0042C10D0082C1CD113E09E6970270C
:10481000BE4306439E6115E09E6907273F03BE43E2
:1048200007023E439E610DE0DE697027BE430643EA
:10483000DE6107E0DE6907273F03BE4307023E4310
:10484000DE6100BF00BF00BF5069012826D10846C5
:10485000012806D002280AD004280FD008281AD12F
:1048600012E09C698026B44380349C6113E09C690B
:104870000126F603B443A4199C610CE0DC69802690
:10488000B4438034DC6106E0DC690126F603B443FE
:10489000A419DC6100BF00BF00BF00BF5068012841
:1048A00022D10846012806D0022809D004280DD0BC
:1048B000082816D10FE09C69042634439C6110E05F
:1048C0009C690126B60234439C610AE0DC69042637
:1048D0003443DC6105E0DC690126B6023443DC6167
:1048E00000BF00BF00BF00BF9068012822D108466A
:1048F000012806D0022809D004280DD0082816D196
:104900000FE09C69082634439C6110E09C690126F5
:10491000F60234439C610AE0DC6908263443DC611A
:1049200005E0DC690126F6023443DC6100BF00BF0C
:1049300000BF00BF012906D002290CD0042912D0E3
:10494000082920D117E0D0685C6B240C24040443B0
:104950005C6300BF19E0D0689C6B240C2404044302
:104960009C6300BF11E0D068DC6B240C240404437A
:10497000DC6300BF09E0D0681C6C240C24040443F1
:104980001C6400BF01E0002500BF00BF2846F0BD49
:104990001249C97A0A2906DB0021104AD172114650
:1049A000C97A505C18E00D49C97A0C4A927A914252
:1049B00005DB0021094AD1729172FF200CE0074902
:1049C000C97A064A505CFF21D27A044B99541946A1
:1049D000C97A491C1A46D172704700004004002071
:1049E00001460F4A927A0A2A02DB00220C4B9A7285
:1049F000002006E00A4A125C8A4200D17047421C3D
:104A0000D0B2074A927A8242F4DA054A927A044B8B
:104A100099541A46927A521C9A7200BFEEE700002F
:104A20004004002000B50522124907208003FDF74D
:104A300015FC11480079042188430E490968890052
:104A40000422114008430C4908710A4800790B49B7
:104A500008700848007A48700648007B887005484E
:104A6000007CC87008460068034988620846806A6E
:104A7000486200BDEC040020C80300201C02002096
:104A800001460888704770B500BF2A2003F0F0FF88
:104A9000002003F0ABFF9F2003F0A8FF00BF00BF82
:104AA0002B2003F0E5FF002003F0A0FF032003F01C
:104AB0009DFF00BF2C2003F0DBFF00240AE000254F
:104AC00004E0002003F092FF681CC5B2A02DF8DBC3
:104AD000601CC4B2042CF2DB70BD10B50446002C7F
:104AE00003D0232003F0C4FF02E0222003F0C0FF24
:104AF00010BD0000F0B587B00D9D0C9C51480078AA
:104B0000002818D100BF2B2003F0B2FF002003F0D3
:104B10006DFF012003F06AFF00BF00BF2A2003F0F1
:104B2000A7FF002003F062FF9F2003F05FFF00BF9C
:104B30002C2003F09DFF43480078A8427DDA4149CC
:104B40000978605C0021FFF749FA002801D00720AE
:104B500000E0002001903B490978605C0121FFF7EB
:104B60003DFA002801D0702000E000200290354975
:104B70000978605C0221FFF731FA002801D0072094
:104B800000E0002003902F490978605C0321FFF7C3
:104B900025FA002801D0702000E000200490294967
:104BA0000978605C0421FFF719FA002801D007207A
:104BB00000E00020059023490978605C0521FFF79B
:104BC0000DFA002801D0702000E0002006901D4959
:104BD0000978605C0621FFF701FA002801D0072060
:104BE00000E00020074617490978605C0721FFF7BD
:104BF000F5F9002801D0702000E000200646019A57
:104C000002991143084603F0F1FE039A04991143F7
:104C1000084603F0EBFE059A06991143084603F097
:104C2000E5FE31463943084603F0E0FE05480078CA
:104C3000401C0449087003E0FFE7002001490870A8
:104C400007B0F0BDF50100203448406B0121090395
:104C50000843324948630846406B802108432F4986
:104C600048632F48090548602E488069000C2D498B
:104C7000098BC94389B2884202D12A48806900E081
:104C80001020C006C00E284988632648C0304068FE
:104C9000000C2449C0318988C94389B2884203D1B4
:104CA0002048C030406800E08020C0B21B498862C4
:104CB0001C488030006A000C1A498031098CC943B5
:104CC00089B2884203D117488030006A00E0802012
:104CD000C0B21249486113488069000C1149098B20
:104CE000C94389B2884202D10E48806900E0102091
:104CF000C006C00E0C4988630C484068FF21813112
:104D000008430A49486005200949086009480068C5
:104D10000221084307490860704700000024004052
:104D20000300010080FAFF1F00200040C00C00407B
:104D30000028004000E0014010B5FFF76FFBFCF7D2
:104D40000BFC10BD10B50F4800794007C00F0E498D
:104D500008600C48806A0D490860084600780A49D6
:104D600048600A484078886008488078C8600748EA
:104D7000C078086105230A46072189030448FDF726
:104D80004FFA10BDC80300204C0400201C02002074
:104D90000010004030B47446641E2578641CAB4299
:104DA00004D3635D5B00E31830BC18471D46F8E789
:104DB000EFF31080704780F31088704700BF704792
:104DC00010B500241248134908600868804704465B
:104DD00011480078844219D00E480079102803DA6F
:104DE00010200C49087111E00A480079202805DAE2
:104DF00008480079401C0749087107E0204600F088
:104E00007DF80020034908710348047010BD0000BC
:104E100045410000A40200200E0000200D48807AC9
:104E20000C49C97A884202D10B480078704709487A
:104E3000807A0849085C084908700648807A401C56
:104E4000C0B2044988720A2801DB00208872024837
:104E50000078EBE7940200200D00002010B500F070
:104E600025F800F001F810BD10B586B0182168468D
:104E7000FBF7C1F90020019002900120039000206F
:104E8000049000240CE0E00007494018808800905E
:104E9000E100054A50586946FEF78AFA601CC4B220
:104EA000072CF0DB06B010BD648D000000210F4A16
:104EB0009172D1721173002014E0642102010C4B35
:104EC000D218118108210201D218117100210201AA
:104ED000D21891720201D218D1720201D218117344
:104EE000411CC8B20728E8DB70470000940200208C
:104EF0002402002010B5FFF763FF10BD0649C97AF0
:104F0000054A50541146C97A491CC9B2D1720A29BE
:104F100001DB0021D1727047940200201CB50020F3
:104F200000900190234908600A216846817003219E
:104F3000C170022141700021017101701021417185
:104F400069461C48FDF7F0FD00BF10201949486272
:104F500000BF0846FDF719FB00BFFF2001301549CF
:104F6000486200BF00BF0846006A8915084311491E
:104F7000086200BF00BF4815486200BF00BF084676
:104F8000006A491508430B49086200BF00BF0220B0
:104F9000486200BF00BF0846006A02210843054975
:104FA000086200BF0448FCF789FA03490220FDF7B4
:104FB00065FD1CBD00940140B402002000B5002333
:104FC0000022FFF72BFF02460E480078904205D0E2
:104FD00000200D4908600B48027010E00A48006884
:104FE000401C0949086008460068322805D932206B
:104FF000086004480270134601E00248037818462E
:1050000000BD00001400002010000020F1B586B0A3
:105010000698FBF725FF044602AA03F003FB0646A9
:105020000F4603990298FBF7A7FD00900022474B1B
:1050300030463946FBF7F0FD0446FBF79DFDC0B254
:10504000019043490098FBF7D8F80007000F694624
:10505000097C090909010843694608743C4900981C
:10506000FBF7CBF80C463B492046FBF7C6F800019E
:10507000F02108406946097CF022914308436946C3
:10508000087434490098FBF7B8F80C467D21C90034
:105090002046FBF7B2F80007000F6946497C090972
:1050A00009010843694648747D21C9000098FBF74F
:1050B000A4F80C4664212046FBF79FF80001F0217C
:1050C00008406946497CF022914308436946487488
:1050D00064210098FBF791F80C460A212046FBF763
:1050E0008CF80007000F6946897C0909090108430B
:1050F000694688740A210098FBF77FF80801F021BF
:1051000008406946897CF0229143084369468874C7
:105110000A210198FBF77BF80007000F6946C97C5C
:105120000909090108436946C8740A210198FBF777
:105130006EF80801F02108406946C97CF0229143CD
:1051400008436946C874049807B0F0BD0000594090
:10515000A0860100102700007CB506463046FBF70C
:1051600058FD484A484B01910090FBF755FD044615
:10517000FBF7F4F8454988633300FFF70BFE0A0696
:105180000B10151A1F24292E333801213F482030D7
:1051900001752CE002213D482030017527E00321F4
:1051A0003A482030017522E002213848203001754C
:1051B0001DE0012135482030017518E002213348F7
:1051C0002030017513E003213048203001750EE0D6
:1051D00002212E482030017509E001212B482030A2
:1051E000017504E0022129482030017500BF00BF8D
:1051F0000B207043C1B22548203001740B2070434E
:10520000C1B22248303041700B207043C1B21F48F8
:10521000303081700B207043C1B21C482030817344
:105220000B207043C1B21948283041700838007A09
:105230003C218843711C89003C22114008431349DA
:10524000203108720B207043C1B210482B304170DE
:105250000B38C07A3C218843711C890011400843F7
:105260000A492031C8723046FBF7D3FC04460022BD
:10527000074BFBF7D1FC01910090FBF76FF8034956
:1052800088607CBDB81E85EB513826408003002025
:105290007020FB40F1B5694648786421FAF7B7FF02
:1052A0000E460A213046FAF7B2FFC4B26946487882
:1052B0006421FAF7ACFF0E460A213046FAF7A7FF41
:1052C000CDB2FE480078002817D0FD48007980074D
:1052D000C00F002811D0FB48447C457C0021684663
:1052E000417000783C21884369460870F648807810
:1052F00040218843F44988700EE0F248045D455D22
:10530000F1488078402188436946897889014022A4
:1053100011400843EC498870684600788007800F88
:10532000002870D1684681780807C00F0140480006
:1053300002210840E449C97B022291430843E24923
:10534000C87368468078694609788906090F092973
:1053500001DD012100E0002108404001202108403A
:10536000D9490979202291430843D74908716946F0
:10537000887809788906090F082901DD012100E0F4
:1053800000210840400120210840CF492031097BFD
:10539000202291430843CC4920310873694688781C
:1053A00009788906090F072901DD012100E00021A4
:1053B0000840800004210840C3492031097B0422B1
:1053C00091430843C04920310873694688780978B9
:1053D0008906090F062901DD012100E000210840AE
:1053E000800004210840B849097904229143084308
:1053F000B54908716946887809788906090F052931
:1054000002DD012101E0A2E100210840C00180216C
:105410000840AD49C978802291430843AA49C87021
:105420006946887809788906090F042901DD012178
:1054300000E000210840C00180210840A24920313D
:10544000C97A8022914308439F492031C872694636
:10545000887809788906090F032901DD012100E018
:105460000021084000011021084097492031C97AE5
:1054700010229143084394492031C87269468878C4
:1054800009788906090F022901DD012100E00021C8
:1054900008400001102108408B49C978102291432F
:1054A00008438949C8706946887809788906090FD0
:1054B000012901DD012100E0002108404000022116
:1054C00008408149C9780222914308437E49C87047
:1054D0006946887809788906090F002901DD0121CC
:1054E00000E00021084040000221084076492031B8
:1054F000C97A02229143084373492031C872684631
:105500008178C806C00F01408801402108406E49DB
:105510002031897A4022914308436B4920318872B7
:105520006846807869464978642901D1012100E004
:1055300000210840C007C00F63492031497B49085A
:105540004900084360492031487300212046FEF796
:1055500045FD69468978084006465B484079400821
:10556000400030435849487101212046FEF736FD7E
:1055700069468978084040000221084006465248A2
:105580008079884330435049887102212046FEF7D4
:1055900025FD6946897808404000022108400646FA
:1055A00049482030807B8843304347492031887305
:1055B00003212046FEF712FD6946897808408001E4
:1055C00040210840064640482030407B8843304315
:1055D0003D492031487304212046FEF7FFFC69460F
:1055E00089780840C0000821084006463648203027
:1055F000407B88433043344920314873052120469D
:10560000FEF7ECFC694689780840C0000821084094
:1056100006462D484079884330432B49487106217E
:105620002046FEF7DBFC694689780840800140216E
:10563000084006462448407988433043224948714F
:1056400000212846FEF7CAFC6946897808404001D7
:105650002021084006461C48C079884330431A4937
:10566000C87101212846FEF7B9FC694689780840CF
:1056700080000421084006461348C079884330431F
:105680001149C87102212846FEF7A8FC69468978AD
:10569000084080000421084006460B482030C07BAB
:1056A0008843304308492031C87303212846FEF758
:1056B00095FC694689780840C00107E0A0000020F9
:1056C000C8030020F6010020E002002080210840ED
:1056D0000646FE48807B88433043FC49887304219A
:1056E0002846FEF77BFC69468978084000011021B6
:1056F00008400646F548807B88433043F349887369
:1057000005212846FEF76AFC6946897808400001B1
:10571000102108400646ED48203880798843304300
:10572000EA492039887106212846FEF757FC694668
:1057300089780840C001802108400646E3482038A7
:10574000807988433043E1492039887122E26846F4
:1057500000788007800F0128F8D168468178080713
:10576000C00F0140480002210840D8492039C97BB8
:10577000022291430843D5492039C873684680788E
:10578000694609788906090F092901DD012100E030
:1057900000210840800004210840CC492039497B81
:1057A000042291430843C9492039487369468878DF
:1057B00009788906090F082901DD012100E000218F
:1057C0000840800004210840C049497D04229143DB
:1057D0000843BE4948756946887809788906090FE3
:1057E000072901DD012100E00021084040012021BE
:1057F0000840B649497D202291430843B349487582
:105800006946887809788906090F062901DD012192
:1058100000E000210840400120210840AB49203928
:10582000497B202291430843A8492039487369469F
:10583000887809788906090F052901DD012100E032
:1058400000210840C007C00FA0492039897B4908C2
:10585000490008439D49203988736946887809784A
:105860008906090F042901DD012100E0002108401B
:10587000C007C00F9549897D4908490008439349ED
:1058800088756946887809788906090F032901DD3A
:10589000012100E000210840C000082108408B4998
:1058A000897D08229143084388498875694688782C
:1058B00009788906090F022901DD012100E0002194
:1058C0000840C0000821084080492039897B08220F
:1058D000914308437D49203988736946887809785F
:1058E0008906090F012901DD012100E0002108409E
:1058F00080014021084075492039897B402291432D
:10590000084372492039887369468878097889067E
:10591000090F002901DD012100E00021084069464E
:1059200089788907C90F08408001402108406749EC
:10593000897D40229143084364498875684681788F
:10594000C806C00F01404800022108405F49C97DD8
:105950000222914308435D49C875684680786946CC
:105960004978642901D1012100E000210840C007E5
:10597000C00F5649497B49084900084353494873B9
:1059800000212046FEF72AFB69468978084000017D
:105990001021084006464D482038C07B88433043DC
:1059A0004A492039C87301212046FEF717FB694692
:1059B0008978084080014021084006464348203845
:1059C000407C8843304341492039487402212046B5
:1059D000FEF704FB694689780840800140210840B1
:1059E00006463A48407E884330433849487603218A
:1059F0002046FEF7F3FA694689780840C00008217E
:105A0000084006463148407E884330432F49487657
:105A100004212046FEF7E2FA6946897808400646E6
:105A20002A48407E400840003043284948760521F6
:105A30002046FEF7D3FA694689780840064623488F
:105A40002038407C400840003043204920394874C9
:105A500006212046FEF7C2FA694689780840C00050
:105A600008210840064619482038407C88433043C6
:105A700016492039487400212846FEF7AFFA6946D6
:105A80008978084080000421084006460F482038E5
:105A9000C07C884330430D492039C8740121284611
:105AA000FEF79CFA694689780840C00180210840C9
:105AB000064606482038807C884330430349203915
:105AC000887402212846FEF789FA01E000030020CD
:105AD000694689780840C0018021084006462E4862
